{"contracts/CrowdHelp.sol":{"CrowdHelp":{"abi":[{"anonymous":false,"inputs":[{"indexed":false,"internalType":"string","name":"reason","type":"string"}],"name":"CampaignCreationFailed","type":"event"},{"anonymous":false,"inputs":[{"indexed":false,"internalType":"address","name":"projectContractAddress","type":"address"},{"indexed":false,"internalType":"address","name":"creator","type":"address"},{"indexed":false,"internalType":"uint256","name":"minContribution","type":"uint256"},{"indexed":false,"internalType":"uint256","name":"projectDeadline","type":"uint256"},{"indexed":false,"internalType":"uint256","name":"goalAmount","type":"uint256"},{"indexed":false,"internalType":"uint256","name":"currentAmount","type":"uint256"},{"indexed":false,"internalType":"uint256","name":"noOfContributors","type":"uint256"},{"indexed":false,"internalType":"string","name":"title","type":"string"},{"indexed":false,"internalType":"string","name":"desc","type":"string"},{"indexed":false,"internalType":"uint256","name":"currentState","type":"uint256"}],"name":"CampaignStarted","type":"event"},{"anonymous":false,"inputs":[{"indexed":false,"internalType":"address","name":"projectAddress","type":"address"},{"indexed":false,"internalType":"uint256","name":"contributedAmount","type":"uint256"},{"indexed":true,"internalType":"address","name":"contributor","type":"address"}],"name":"ContributionReceived","type":"event"},{"inputs":[{"internalType":"string","name":"projectTitle","type":"string"},{"internalType":"string","name":"projectDesc","type":"string"},{"internalType":"uint256","name":"minimumContribution","type":"uint256"},{"internalType":"uint256","name":"targetContribution","type":"uint256"},{"internalType":"uint256","name":"deadline","type":"uint256"},{"internalType":"string","name":"bannerUrl","type":"string"},{"internalType":"uint256","name":"campaignSchemeId","type":"uint256"}],"name":"createCampaign","outputs":[],"stateMutability":"nonpayable","type":"function"},{"inputs":[],"name":"getDeployedCampaigns","outputs":[{"internalType":"address[]","name":"","type":"address[]"}],"stateMutability":"view","type":"function"},{"inputs":[],"name":"returnDeployedCampaigns","outputs":[{"internalType":"contract Campaign[]","name":"","type":"address[]"}],"stateMutability":"view","type":"function"}],"devdoc":{"kind":"dev","methods":{},"version":1},"evm":{"bytecode":{"linkReferences":{},"object":"608060405234801561001057600080fd5b50611f3b806100206000396000f3fe60806040523480156200001157600080fd5b5060043610620000465760003560e01c80630f415b61146200004b5780634acb9d4f1462000064578063e327e2141462000086575b600080fd5b620000626200005c3660046200043b565b62000090565b005b6200006e620001b3565b6040516200007d9190620005b6565b60405180910390f35b6200006e620002b1565b620000d16040518060400160405280601e81526020017f4372656174696e672063616d706169676e207769746820736368656d653a00008152508262000315565b6000338685878b8b8888604051620000e990620003a4565b620000fc9897969594939291906200053e565b604051809103906000f08015801562000119573d6000803e3d6000fd5b5090506200015d6040518060400160405280601e81526020017f4372656174696e672063616d706169676e207769746820736368656d653a00008152508362000315565b600080546001810182559080527f290decd9548b62a8d60345a988386fc84ba6bc95484008f6362f93160ef3e5630180546001600160a01b0319166001600160a01b039290921691909117905550505050505050565b600080546060919067ffffffffffffffff811115620001e257634e487b7160e01b600052604160045260246000fd5b6040519080825280602002602001820160405280156200020c578160200160208202803683370190505b50905060005b600054811015620002ab57600081815481106200023f57634e487b7160e01b600052603260045260246000fd5b9060005260206000200160009054906101000a90046001600160a01b03168282815181106200027e57634e487b7160e01b600052603260045260246000fd5b6001600160a01b039092166020928302919091019091015280620002a28162000629565b91505062000212565b50905090565b606060008054806020026020016040519081016040528092919081815260200182805480156200030b57602002820191906000526020600020905b81546001600160a01b03168152600190910190602001808311620002ec575b5050505050905090565b6200035e82826040516024016200032e92919062000605565b60408051601f198184030181529190526020810180516001600160e01b0316632d839cb360e21b17905262000362565b5050565b6200037d816200037562000380620003a1565b63ffffffff16565b50565b60006a636f6e736f6c652e6c6f679050600080835160208501845afa505050565b90565b61189e806200066883390190565b600082601f830112620003c3578081fd5b813567ffffffffffffffff80821115620003e157620003e162000651565b604051601f8301601f19168101602001828111828210171562000408576200040862000651565b60405282815284830160200186101562000420578384fd5b82602086016020830137918201602001929092529392505050565b600080600080600080600060e0888a03121562000456578283fd5b873567ffffffffffffffff808211156200046e578485fd5b6200047c8b838c01620003b2565b985060208a013591508082111562000492578485fd5b620004a08b838c01620003b2565b975060408a0135965060608a0135955060808a0135945060a08a0135915080821115620004cb578384fd5b50620004da8a828b01620003b2565b92505060c0880135905092959891949750929550565b60008151808452815b818110156200051757602081850181015186830182015201620004f9565b81811115620005295782602083870101525b50601f01601f19169290920160200192915050565b600061010060018060a01b038b1683528960208401528860408401528760608401528060808401526200057481840188620004f0565b905082810360a08401526200058a8187620004f0565b905082810360c0840152620005a08186620004f0565b9150508260e08301529998505050505050505050565b6020808252825182820181905260009190848201906040850190845b81811015620005f95783516001600160a01b031683529284019291840191600101620005d2565b50909695505050505050565b6000604082526200061a6040830185620004f0565b90508260208301529392505050565b60006000198214156200064a57634e487b7160e01b81526011600452602481fd5b5060010190565b634e487b7160e01b600052604160045260246000fdfe6080604052600a805460ff191690553480156200001b57600080fd5b506040516200189e3803806200189e8339810160408190526200003e9162000462565b7fdf1ccadd90c8987aa73568b11e0c57744db13dccf98de0a82f2b9bc6edb3d10486426040516200007192919062000678565b60405180910390a160028110620000a55760405162461bcd60e51b81526004016200009c906200064d565b60405180910390fd5b620000e46040518060400160405280601081526020016f213637b1b5903a34b6b2b9ba30b6b81d60811b815250426200024660201b62000b261760201c565b620001226040518060400160405280600f81526020016e23b4bb32b7103232b0b23634b7329d60891b815250876200024660201b62000b261760201c565b428611620001445760405162461bcd60e51b81526004016200009c9062000616565b60008711620001675760405162461bcd60e51b81526004016200009c9062000568565b600085116200018a5760405162461bcd60e51b81526004016200009c90620005b3565b600080546001600160a01b0319166001600160a01b038a161790556001879055600286905560038590558351620001c99060079060208701906200031b565b508251620001df9060089060208601906200031b565b5060006005558151620001fa9060099060208501906200031b565b50620002068162000297565b600a805461ff0019166101008360018111156200023357634e487b7160e01b600052602160045260246000fd5b021790555050505050505050506200070c565b6200029382826040516024016200025f9291906200052b565b60408051601f198184030181529190526020810180516001600160e01b03908116632d839cb360e21b17909152620002d416565b5050565b600060028210620002bc5760405162461bcd60e51b81526004016200009c90620005ea565b81620002cb57506000620002cf565b5060015b919050565b620002f481620002ef62000b6b620002f760201b1762000318565b60201c565b50565b60006a636f6e736f6c652e6c6f679050600080835160208501845afa505050565b90565b8280546200032990620006b9565b90600052602060002090601f0160209004810192826200034d576000855562000398565b82601f106200036857805160ff191683800117855562000398565b8280016001018555821562000398579182015b82811115620003985782518255916020019190600101906200037b565b50620003a6929150620003aa565b5090565b5b80821115620003a65760008155600101620003ab565b80516001600160a01b0381168114620002cf57600080fd5b600082601f830112620003ea578081fd5b81516001600160401b0380821115620004075762000407620006f6565b604051601f8301601f1916810160200182811182821017156200042e576200042e620006f6565b60405282815284830160200186101562000446578384fd5b6200045983602083016020880162000686565b95945050505050565b600080600080600080600080610100898b0312156200047f578384fd5b6200048a89620003c1565b60208a015160408b015160608c015160808d0151939b50919950975095506001600160401b0380821115620004bd578586fd5b620004cb8c838d01620003d9565b955060a08b0151915080821115620004e1578485fd5b620004ef8c838d01620003d9565b945060c08b015191508082111562000505578384fd5b50620005148b828c01620003d9565b92505060e089015190509295985092959890939650565b60006040825283518060408401526200054c81606085016020880162000686565b602083019390935250601f91909101601f191601606001919050565b6020808252602b908201527f4d696e696d756d20636f6e747269627574696f6e206d7573742062652067726560408201526a061746572207468616e20360ac1b606082015260800190565b6020808252601d908201527f546172676574206d7573742062652067726561746572207468616e2030000000604082015260600190565b602080825260129082015271496e646578206f7574206f662072616e676560701b604082015260600190565b6020808252601e908201527f446561646c696e65206d75737420626520696e20746865206675747572650000604082015260600190565b602080825260119082015270125b9d985b1a59081cd8da195b59481a59607a1b604082015260600190565b918252602082015260400190565b60005b83811015620006a357818101518382015260200162000689565b83811115620006b3576000848401525b50505050565b600281046001821680620006ce57607f821691505b60208210811415620006f057634e487b7160e01b600052602260045260246000fd5b50919050565b634e487b7160e01b600052604160045260246000fd5b611182806200071c6000396000f3fe6080604052600436106100fe5760003560e01c80638d27289e11610095578063b82c86d611610064578063b82c86d61461023d578063c19d93fb14610252578063c3e20c9f14610274578063c59ee1dc14610289578063d7bb99ba1461029e576100fe565b80638d27289e146101dd578063937e09b1146101e55780639d43b9b5146101fa578063a00c96d71461020f576100fe565b80634e260f6f116100d15780634e260f6f1461017c5780636eef7d95146101915780636f9fb98a146101b35780637a9a8055146101c8576100fe565b806302d05d3f1461010357806303c29d581461012e57806329dcb0cf146101505780633d0300bd14610172575b600080fd5b34801561010f57600080fd5b506101186102a6565b6040516101259190610cc3565b60405180910390f35b34801561013a57600080fd5b506101436102b5565b6040516101259190610ddb565b34801561015c57600080fd5b50610165610343565b6040516101259190611086565b61017a610349565b005b34801561018857600080fd5b50610165610474565b34801561019d57600080fd5b506101a661047a565b6040516101259190610dad565b3480156101bf57600080fd5b50610165610488565b3480156101d457600080fd5b5061014361048c565b61017a610499565b3480156101f157600080fd5b5061016561069f565b34801561020657600080fd5b506101656106a5565b34801561021b57600080fd5b506102246106ab565b6040516101259d9c9b9a99989796959493929190610d11565b34801561024957600080fd5b506101656108e0565b34801561025e57600080fd5b506102676108e6565b6040516101259190610dc7565b34801561028057600080fd5b506101436108ef565b34801561029557600080fd5b506101656108fc565b61017a610902565b6000546001600160a01b031681565b600880546102c2906110b5565b80601f01602080910402602001604051908101604052809291908181526020018280546102ee906110b5565b801561033b5780601f106103105761010080835404028352916020019161033b565b820191906000526020600020905b81548152906001019060200180831161031e57829003601f168201915b505050505081565b60025481565b6000546001600160a01b0316331461037c5760405162461bcd60e51b815260040161037390610eab565b60405180910390fd5b6001600a5460ff1660038111156103a357634e487b7160e01b600052602160045260246000fd5b146103c05760405162461bcd60e51b815260040161037390610efb565b60025442106103e15760405162461bcd60e51b815260040161037390610e17565b600080546005546040516001600160a01b039092169281156108fc029290818181858888f1935050505015801561041c573d6000803e3d6000fd5b50600a805460ff191660021790556000546005546040517fc364254574c58e1bdd9077b0e35e609ee391ca636748a275674d5fb5bdc1d3f69261046a926001600160a01b0390911691610cd7565b60405180910390a1565b60065481565b600a54610100900460ff1681565b4790565b600980546102c2906110b5565b6000546001600160a01b031633146104c35760405162461bcd60e51b815260040161037390610eab565b60025442106104e45760405162461bcd60e51b81526004016103739061103a565b6000600a5460ff16600381111561050b57634e487b7160e01b600052602160045260246000fd5b148061053b57506001600a5460ff16600381111561053957634e487b7160e01b600052602160045260246000fd5b145b6105575760405162461bcd60e51b815260040161037390610e66565b60005b60065481101561065b57600b818154811061058557634e487b7160e01b600052603260045260246000fd5b6000918252602090912060029091020154600b80546001600160a01b03909216916108fc9190849081106105c957634e487b7160e01b600052603260045260246000fd5b9060005260206000209060020201600101549081150290604051600060405180830381858888f19350505050158015610606573d6000803e3d6000fd5b50600b818154811061062857634e487b7160e01b600052603260045260246000fd5b60009182526020822060029091020180546001600160a01b0319168155600101558061065381611110565b91505061055a565b50600a805460ff191660031790556006546005546040517fd69eae259b3e1e42f22f60a8a54dbf4d1983d006a10d5f36c068ccc87eb493919261046a92909161108f565b60015481565b60045481565b60008054600154600254600354600454600554600780546001600160a01b0390971697959694959394929391926060928392909182918491839182916106f0906110b5565b80601f016020809104026020016040519081016040528092919081815260200182805461071c906110b5565b80156107695780601f1061073e57610100808354040283529160200191610769565b820191906000526020600020905b81548152906001019060200180831161074c57829003601f168201915b505050505096506008805461077d906110b5565b80601f01602080910402602001604051908101604052809291908181526020018280546107a9906110b5565b80156107f65780601f106107cb576101008083540402835291602001916107f6565b820191906000526020600020905b8154815290600101906020018083116107d957829003601f168201915b5050600a5460098054959b5060ff90911699504798509361081b935091506110b59050565b80601f0160208091040260200160405190810160405280929190818152602001828054610847906110b5565b80156108945780601f1061086957610100808354040283529160200191610894565b820191906000526020600020905b81548152906001019060200180831161087757829003601f168201915b505050505092506006549150600a60019054906101000a900460ff1660018111156108cf57634e487b7160e01b600052602160045260246000fd5b9050909192939495969798999a9b9c565b60035481565b600a5460ff1681565b600780546102c2906110b5565b60055481565b6000600a5460ff16600381111561092957634e487b7160e01b600052602160045260246000fd5b148061095957506001600a5460ff16600381111561095757634e487b7160e01b600052602160045260246000fd5b145b6109755760405162461bcd60e51b815260040161037390610f70565b60025442106109965760405162461bcd60e51b815260040161037390610fcc565b6001543410156109b85760405162461bcd60e51b815260040161037390610f97565b3360006109c482610b8c565b9050806000191415610a7e57600680549060006109e083611110565b9091555050604080518082019091526001600160a01b0383811682523460208301908152600b805460018101825560009190915292517f0175b7a638427703f0dbe7bb9bbf987a2551717b34e79f33b5b1008d1fa01db9600290940293840180546001600160a01b0319169190931617909155517f0175b7a638427703f0dbe7bb9bbf987a2551717b34e79f33b5b1008d1fa01dba90910155610ac6565b34600b8281548110610aa057634e487b7160e01b600052603260045260246000fd5b90600052602060002090600202016001016000828254610ac0919061109d565b90915550505b3460056000828254610ad8919061109d565b90915550506005546040517f5cdc4ab8d637538ead6cc1904d4160343656c8c82bd266635cfd31ac008fffe091610b129185913491610cf0565b60405180910390a1610b22610c03565b5050565b610b228282604051602401610b3c929190610df5565b60408051601f198184030181529190526020810180516001600160e01b0316632d839cb360e21b179052610c31565b60006a636f6e736f6c652e6c6f679050600080835160208501845afa505050565b6000600019815b600654811215610bfc57600b8181548110610bbe57634e487b7160e01b600052603260045260246000fd5b60009182526020909120600290910201546001600160a01b0385811691161415610bea57809150610bfc565b80610bf4816110f0565b915050610b93565b5092915050565b60035460055410158015610c18575060025442105b15610c2f57600a805460ff19166001179055426004555b565b610c4881610c40610b6b610c4b565b63ffffffff16565b50565b90565b634e487b7160e01b600052605160045260246000fd5b60048110610c7457610c74611136565b9052565b60008151808452815b81811015610c9d57602081850181015186830182015201610c81565b81811115610cae5782602083870101525b50601f01601f19169290920160200192915050565b6001600160a01b0391909116815260200190565b6001600160a01b03929092168252602082015260400190565b6001600160a01b039390931683526020830191909152604082015260600190565b600060018060a01b038f1682528d60208301528c60408301528b60608301528a60808301528960a08301526101a060c0830152610d526101a083018a610c78565b82810360e0840152610d64818a610c78565b9050610d74610100840189610c64565b86610120840152828103610140840152610d8e8187610c78565b610160840195909552505061018001529b9a5050505050505050505050565b6020810160028310610dc157610dc1611136565b91905290565b60208101610dd58284610c64565b92915050565b600060208252610dee6020830184610c78565b9392505050565b600060408252610e086040830185610c78565b90508260208301529392505050565b6020808252602f908201527f43616d706169676e2063616e6e6f7420626520656e6465642c20646561646c6960408201526e3732903737ba103932b0b1b432b21760891b606082015260800190565b60208082526025908201527f496e76616c69642073746174652e2043616e6e6f742061626f72742063616d7060408201526430b4b3b71760d91b606082015260800190565b60208082526030908201527f596f7520646f6e7420686176652061636365737320746f20706572666f726d2060408201526f74686973206f7065726174696f6e202160801b606082015260800190565b6020808252604f908201527f476f616c206e6f7420726561636865642c20616d6f756e742063616e6e6f742060408201527f62652077697468647261776e2e20506c656173652061626f727420746f20726560608201526e66756e6420746f206261636b65727360881b608082015260a00190565b6020808252600d908201526c496e76616c696420737461746560981b604082015260600190565b6020808252818101527f436f6e747269627574696f6e20616d6f756e7420697320746f6f206c6f772021604082015260600190565b60208082526048908201527f536f727279206261636b65722c20646561646c696e652068617320706173736560408201527f6421204e6f20636f6e747269627574696f6e732063616e2062652061636365706060820152673a32b2103737bb9760c11b608082015260a00190565b6020808252602c908201527f43616d706169676e2063616e6e6f742062652061626f727465642c206465616460408201526b3634b732903830b9b9b2b21760a11b606082015260800190565b90815260200190565b918252602082015260400190565b600082198211156110b0576110b0611120565b500190565b6002810460018216806110c957607f821691505b602082108114156110ea57634e487b7160e01b600052602260045260246000fd5b50919050565b60006001600160ff1b0382141561110957611109611120565b5060010190565b6000600019821415611109576111095b634e487b7160e01b600052601160045260246000fd5b634e487b7160e01b600052602160045260246000fdfea2646970667358221220a381296b014d0ef2e06e12d5886bcee0d33a113f7f40caa1d262d84fe15d144564736f6c63430008000033a2646970667358221220e90f8613d4e15b31bc6df7ed942684e597ad8f806828722ab52c48a7951476e964736f6c63430008000033","opcodes":"PUSH1 0x80 PUSH1 0x40 MSTORE CALLVALUE DUP1 ISZERO PUSH2 0x10 JUMPI PUSH1 0x0 DUP1 REVERT JUMPDEST POP PUSH2 0x1F3B DUP1 PUSH2 0x20 PUSH1 0x0 CODECOPY PUSH1 0x0 RETURN INVALID PUSH1 0x80 PUSH1 0x40 MSTORE CALLVALUE DUP1 ISZERO PUSH3 0x11 JUMPI PUSH1 0x0 DUP1 REVERT JUMPDEST POP PUSH1 0x4 CALLDATASIZE LT PUSH3 0x46 JUMPI PUSH1 0x0 CALLDATALOAD PUSH1 0xE0 SHR DUP1 PUSH4 0xF415B61 EQ PUSH3 0x4B JUMPI DUP1 PUSH4 0x4ACB9D4F EQ PUSH3 0x64 JUMPI DUP1 PUSH4 0xE327E214 EQ PUSH3 0x86 JUMPI JUMPDEST PUSH1 0x0 DUP1 REVERT JUMPDEST PUSH3 0x62 PUSH3 0x5C CALLDATASIZE PUSH1 0x4 PUSH3 0x43B JUMP JUMPDEST PUSH3 0x90 JUMP JUMPDEST STOP JUMPDEST PUSH3 0x6E PUSH3 0x1B3 JUMP JUMPDEST PUSH1 0x40 MLOAD PUSH3 0x7D SWAP2 SWAP1 PUSH3 0x5B6 JUMP JUMPDEST PUSH1 0x40 MLOAD DUP1 SWAP2 SUB SWAP1 RETURN JUMPDEST PUSH3 0x6E PUSH3 0x2B1 JUMP JUMPDEST PUSH3 0xD1 PUSH1 0x40 MLOAD DUP1 PUSH1 0x40 ADD PUSH1 0x40 MSTORE DUP1 PUSH1 0x1E DUP2 MSTORE PUSH1 0x20 ADD PUSH32 0x4372656174696E672063616D706169676E207769746820736368656D653A0000 DUP2 MSTORE POP DUP3 PUSH3 0x315 JUMP JUMPDEST PUSH1 0x0 CALLER DUP7 DUP6 DUP8 DUP12 DUP12 DUP9 DUP9 PUSH1 0x40 MLOAD PUSH3 0xE9 SWAP1 PUSH3 0x3A4 JUMP JUMPDEST PUSH3 0xFC SWAP9 SWAP8 SWAP7 SWAP6 SWAP5 SWAP4 SWAP3 SWAP2 SWAP1 PUSH3 0x53E JUMP JUMPDEST PUSH1 0x40 MLOAD DUP1 SWAP2 SUB SWAP1 PUSH1 0x0 CREATE DUP1 ISZERO DUP1 ISZERO PUSH3 0x119 JUMPI RETURNDATASIZE PUSH1 0x0 DUP1 RETURNDATACOPY RETURNDATASIZE PUSH1 0x0 REVERT JUMPDEST POP SWAP1 POP PUSH3 0x15D PUSH1 0x40 MLOAD DUP1 PUSH1 0x40 ADD PUSH1 0x40 MSTORE DUP1 PUSH1 0x1E DUP2 MSTORE PUSH1 0x20 ADD PUSH32 0x4372656174696E672063616D706169676E207769746820736368656D653A0000 DUP2 MSTORE POP DUP4 PUSH3 0x315 JUMP JUMPDEST PUSH1 0x0 DUP1 SLOAD PUSH1 0x1 DUP2 ADD DUP3 SSTORE SWAP1 DUP1 MSTORE PUSH32 0x290DECD9548B62A8D60345A988386FC84BA6BC95484008F6362F93160EF3E563 ADD DUP1 SLOAD PUSH1 0x1 PUSH1 0x1 PUSH1 0xA0 SHL SUB NOT AND PUSH1 0x1 PUSH1 0x1 PUSH1 0xA0 SHL SUB SWAP3 SWAP1 SWAP3 AND SWAP2 SWAP1 SWAP2 OR SWAP1 SSTORE POP POP POP POP POP POP POP JUMP JUMPDEST PUSH1 0x0 DUP1 SLOAD PUSH1 0x60 SWAP2 SWAP1 PUSH8 0xFFFFFFFFFFFFFFFF DUP2 GT ISZERO PUSH3 0x1E2 JUMPI PUSH4 0x4E487B71 PUSH1 0xE0 SHL PUSH1 0x0 MSTORE PUSH1 0x41 PUSH1 0x4 MSTORE PUSH1 0x24 PUSH1 0x0 REVERT JUMPDEST PUSH1 0x40 MLOAD SWAP1 DUP1 DUP3 MSTORE DUP1 PUSH1 0x20 MUL PUSH1 0x20 ADD DUP3 ADD PUSH1 0x40 MSTORE DUP1 ISZERO PUSH3 0x20C JUMPI DUP2 PUSH1 0x20 ADD PUSH1 0x20 DUP3 MUL DUP1 CALLDATASIZE DUP4 CALLDATACOPY ADD SWAP1 POP JUMPDEST POP SWAP1 POP PUSH1 0x0 JUMPDEST PUSH1 0x0 SLOAD DUP2 LT ISZERO PUSH3 0x2AB JUMPI PUSH1 0x0 DUP2 DUP2 SLOAD DUP2 LT PUSH3 0x23F JUMPI PUSH4 0x4E487B71 PUSH1 0xE0 SHL PUSH1 0x0 MSTORE PUSH1 0x32 PUSH1 0x4 MSTORE PUSH1 0x24 PUSH1 0x0 REVERT JUMPDEST SWAP1 PUSH1 0x0 MSTORE PUSH1 0x20 PUSH1 0x0 KECCAK256 ADD PUSH1 0x0 SWAP1 SLOAD SWAP1 PUSH2 0x100 EXP SWAP1 DIV PUSH1 0x1 PUSH1 0x1 PUSH1 0xA0 SHL SUB AND DUP3 DUP3 DUP2 MLOAD DUP2 LT PUSH3 0x27E JUMPI PUSH4 0x4E487B71 PUSH1 0xE0 SHL PUSH1 0x0 MSTORE PUSH1 0x32 PUSH1 0x4 MSTORE PUSH1 0x24 PUSH1 0x0 REVERT JUMPDEST PUSH1 0x1 PUSH1 0x1 PUSH1 0xA0 SHL SUB SWAP1 SWAP3 AND PUSH1 0x20 SWAP3 DUP4 MUL SWAP2 SWAP1 SWAP2 ADD SWAP1 SWAP2 ADD MSTORE DUP1 PUSH3 0x2A2 DUP2 PUSH3 0x629 JUMP JUMPDEST SWAP2 POP POP PUSH3 0x212 JUMP JUMPDEST POP SWAP1 POP SWAP1 JUMP JUMPDEST PUSH1 0x60 PUSH1 0x0 DUP1 SLOAD DUP1 PUSH1 0x20 MUL PUSH1 0x20 ADD PUSH1 0x40 MLOAD SWAP1 DUP2 ADD PUSH1 0x40 MSTORE DUP1 SWAP3 SWAP2 SWAP1 DUP2 DUP2 MSTORE PUSH1 0x20 ADD DUP3 DUP1 SLOAD DUP1 ISZERO PUSH3 0x30B JUMPI PUSH1 0x20 MUL DUP3 ADD SWAP2 SWAP1 PUSH1 0x0 MSTORE PUSH1 0x20 PUSH1 0x0 KECCAK256 SWAP1 JUMPDEST DUP2 SLOAD PUSH1 0x1 PUSH1 0x1 PUSH1 0xA0 SHL SUB AND DUP2 MSTORE PUSH1 0x1 SWAP1 SWAP2 ADD SWAP1 PUSH1 0x20 ADD DUP1 DUP4 GT PUSH3 0x2EC JUMPI JUMPDEST POP POP POP POP POP SWAP1 POP SWAP1 JUMP JUMPDEST PUSH3 0x35E DUP3 DUP3 PUSH1 0x40 MLOAD PUSH1 0x24 ADD PUSH3 0x32E SWAP3 SWAP2 SWAP1 PUSH3 0x605 JUMP JUMPDEST PUSH1 0x40 DUP1 MLOAD PUSH1 0x1F NOT DUP2 DUP5 SUB ADD DUP2 MSTORE SWAP2 SWAP1 MSTORE PUSH1 0x20 DUP2 ADD DUP1 MLOAD PUSH1 0x1 PUSH1 0x1 PUSH1 0xE0 SHL SUB AND PUSH4 0x2D839CB3 PUSH1 0xE2 SHL OR SWAP1 MSTORE PUSH3 0x362 JUMP JUMPDEST POP POP JUMP JUMPDEST PUSH3 0x37D DUP2 PUSH3 0x375 PUSH3 0x380 PUSH3 0x3A1 JUMP JUMPDEST PUSH4 0xFFFFFFFF AND JUMP JUMPDEST POP JUMP JUMPDEST PUSH1 0x0 PUSH11 0x636F6E736F6C652E6C6F67 SWAP1 POP PUSH1 0x0 DUP1 DUP4 MLOAD PUSH1 0x20 DUP6 ADD DUP5 GAS STATICCALL POP POP POP JUMP JUMPDEST SWAP1 JUMP JUMPDEST PUSH2 0x189E DUP1 PUSH3 0x668 DUP4 CODECOPY ADD SWAP1 JUMP JUMPDEST PUSH1 0x0 DUP3 PUSH1 0x1F DUP4 ADD SLT PUSH3 0x3C3 JUMPI DUP1 DUP2 REVERT JUMPDEST DUP2 CALLDATALOAD PUSH8 0xFFFFFFFFFFFFFFFF DUP1 DUP3 GT ISZERO PUSH3 0x3E1 JUMPI PUSH3 0x3E1 PUSH3 0x651 JUMP JUMPDEST PUSH1 0x40 MLOAD PUSH1 0x1F DUP4 ADD PUSH1 0x1F NOT AND DUP2 ADD PUSH1 0x20 ADD DUP3 DUP2 GT DUP3 DUP3 LT OR ISZERO PUSH3 0x408 JUMPI PUSH3 0x408 PUSH3 0x651 JUMP JUMPDEST PUSH1 0x40 MSTORE DUP3 DUP2 MSTORE DUP5 DUP4 ADD PUSH1 0x20 ADD DUP7 LT ISZERO PUSH3 0x420 JUMPI DUP4 DUP5 REVERT JUMPDEST DUP3 PUSH1 0x20 DUP7 ADD PUSH1 0x20 DUP4 ADD CALLDATACOPY SWAP2 DUP3 ADD PUSH1 0x20 ADD SWAP3 SWAP1 SWAP3 MSTORE SWAP4 SWAP3 POP POP POP JUMP JUMPDEST PUSH1 0x0 DUP1 PUSH1 0x0 DUP1 PUSH1 0x0 DUP1 PUSH1 0x0 PUSH1 0xE0 DUP9 DUP11 SUB SLT ISZERO PUSH3 0x456 JUMPI DUP3 DUP4 REVERT JUMPDEST DUP8 CALLDATALOAD PUSH8 0xFFFFFFFFFFFFFFFF DUP1 DUP3 GT ISZERO PUSH3 0x46E JUMPI DUP5 DUP6 REVERT JUMPDEST PUSH3 0x47C DUP12 DUP4 DUP13 ADD PUSH3 0x3B2 JUMP JUMPDEST SWAP9 POP PUSH1 0x20 DUP11 ADD CALLDATALOAD SWAP2 POP DUP1 DUP3 GT ISZERO PUSH3 0x492 JUMPI DUP5 DUP6 REVERT JUMPDEST PUSH3 0x4A0 DUP12 DUP4 DUP13 ADD PUSH3 0x3B2 JUMP JUMPDEST SWAP8 POP PUSH1 0x40 DUP11 ADD CALLDATALOAD SWAP7 POP PUSH1 0x60 DUP11 ADD CALLDATALOAD SWAP6 POP PUSH1 0x80 DUP11 ADD CALLDATALOAD SWAP5 POP PUSH1 0xA0 DUP11 ADD CALLDATALOAD SWAP2 POP DUP1 DUP3 GT ISZERO PUSH3 0x4CB JUMPI DUP4 DUP5 REVERT JUMPDEST POP PUSH3 0x4DA DUP11 DUP3 DUP12 ADD PUSH3 0x3B2 JUMP JUMPDEST SWAP3 POP POP PUSH1 0xC0 DUP9 ADD CALLDATALOAD SWAP1 POP SWAP3 SWAP6 SWAP9 SWAP2 SWAP5 SWAP8 POP SWAP3 SWAP6 POP JUMP JUMPDEST PUSH1 0x0 DUP2 MLOAD DUP1 DUP5 MSTORE DUP2 JUMPDEST DUP2 DUP2 LT ISZERO PUSH3 0x517 JUMPI PUSH1 0x20 DUP2 DUP6 ADD DUP2 ADD MLOAD DUP7 DUP4 ADD DUP3 ADD MSTORE ADD PUSH3 0x4F9 JUMP JUMPDEST DUP2 DUP2 GT ISZERO PUSH3 0x529 JUMPI DUP3 PUSH1 0x20 DUP4 DUP8 ADD ADD MSTORE JUMPDEST POP PUSH1 0x1F ADD PUSH1 0x1F NOT AND SWAP3 SWAP1 SWAP3 ADD PUSH1 0x20 ADD SWAP3 SWAP2 POP POP JUMP JUMPDEST PUSH1 0x0 PUSH2 0x100 PUSH1 0x1 DUP1 PUSH1 0xA0 SHL SUB DUP12 AND DUP4 MSTORE DUP10 PUSH1 0x20 DUP5 ADD MSTORE DUP9 PUSH1 0x40 DUP5 ADD MSTORE DUP8 PUSH1 0x60 DUP5 ADD MSTORE DUP1 PUSH1 0x80 DUP5 ADD MSTORE PUSH3 0x574 DUP2 DUP5 ADD DUP9 PUSH3 0x4F0 JUMP JUMPDEST SWAP1 POP DUP3 DUP2 SUB PUSH1 0xA0 DUP5 ADD MSTORE PUSH3 0x58A DUP2 DUP8 PUSH3 0x4F0 JUMP JUMPDEST SWAP1 POP DUP3 DUP2 SUB PUSH1 0xC0 DUP5 ADD MSTORE PUSH3 0x5A0 DUP2 DUP7 PUSH3 0x4F0 JUMP JUMPDEST SWAP2 POP POP DUP3 PUSH1 0xE0 DUP4 ADD MSTORE SWAP10 SWAP9 POP POP POP POP POP POP POP POP POP JUMP JUMPDEST PUSH1 0x20 DUP1 DUP3 MSTORE DUP3 MLOAD DUP3 DUP3 ADD DUP2 SWAP1 MSTORE PUSH1 0x0 SWAP2 SWAP1 DUP5 DUP3 ADD SWAP1 PUSH1 0x40 DUP6 ADD SWAP1 DUP5 JUMPDEST DUP2 DUP2 LT ISZERO PUSH3 0x5F9 JUMPI DUP4 MLOAD PUSH1 0x1 PUSH1 0x1 PUSH1 0xA0 SHL SUB AND DUP4 MSTORE SWAP3 DUP5 ADD SWAP3 SWAP2 DUP5 ADD SWAP2 PUSH1 0x1 ADD PUSH3 0x5D2 JUMP JUMPDEST POP SWAP1 SWAP7 SWAP6 POP POP POP POP POP POP JUMP JUMPDEST PUSH1 0x0 PUSH1 0x40 DUP3 MSTORE PUSH3 0x61A PUSH1 0x40 DUP4 ADD DUP6 PUSH3 0x4F0 JUMP JUMPDEST SWAP1 POP DUP3 PUSH1 0x20 DUP4 ADD MSTORE SWAP4 SWAP3 POP POP POP JUMP JUMPDEST PUSH1 0x0 PUSH1 0x0 NOT DUP3 EQ ISZERO PUSH3 0x64A JUMPI PUSH4 0x4E487B71 PUSH1 0xE0 SHL DUP2 MSTORE PUSH1 0x11 PUSH1 0x4 MSTORE PUSH1 0x24 DUP2 REVERT JUMPDEST POP PUSH1 0x1 ADD SWAP1 JUMP JUMPDEST PUSH4 0x4E487B71 PUSH1 0xE0 SHL PUSH1 0x0 MSTORE PUSH1 0x41 PUSH1 0x4 MSTORE PUSH1 0x24 PUSH1 0x0 REVERT INVALID PUSH1 0x80 PUSH1 0x40 MSTORE PUSH1 0xA DUP1 SLOAD PUSH1 0xFF NOT AND SWAP1 SSTORE CALLVALUE DUP1 ISZERO PUSH3 0x1B JUMPI PUSH1 0x0 DUP1 REVERT JUMPDEST POP PUSH1 0x40 MLOAD PUSH3 0x189E CODESIZE SUB DUP1 PUSH3 0x189E DUP4 CODECOPY DUP2 ADD PUSH1 0x40 DUP2 SWAP1 MSTORE PUSH3 0x3E SWAP2 PUSH3 0x462 JUMP JUMPDEST PUSH32 0xDF1CCADD90C8987AA73568B11E0C57744DB13DCCF98DE0A82F2B9BC6EDB3D104 DUP7 TIMESTAMP PUSH1 0x40 MLOAD PUSH3 0x71 SWAP3 SWAP2 SWAP1 PUSH3 0x678 JUMP JUMPDEST PUSH1 0x40 MLOAD DUP1 SWAP2 SUB SWAP1 LOG1 PUSH1 0x2 DUP2 LT PUSH3 0xA5 JUMPI PUSH1 0x40 MLOAD PUSH3 0x461BCD PUSH1 0xE5 SHL DUP2 MSTORE PUSH1 0x4 ADD PUSH3 0x9C SWAP1 PUSH3 0x64D JUMP JUMPDEST PUSH1 0x40 MLOAD DUP1 SWAP2 SUB SWAP1 REVERT JUMPDEST PUSH3 0xE4 PUSH1 0x40 MLOAD DUP1 PUSH1 0x40 ADD PUSH1 0x40 MSTORE DUP1 PUSH1 0x10 DUP2 MSTORE PUSH1 0x20 ADD PUSH16 0x213637B1B5903A34B6B2B9BA30B6B81D PUSH1 0x81 SHL DUP2 MSTORE POP TIMESTAMP PUSH3 0x246 PUSH1 0x20 SHL PUSH3 0xB26 OR PUSH1 0x20 SHR JUMP JUMPDEST PUSH3 0x122 PUSH1 0x40 MLOAD DUP1 PUSH1 0x40 ADD PUSH1 0x40 MSTORE DUP1 PUSH1 0xF DUP2 MSTORE PUSH1 0x20 ADD PUSH15 0x23B4BB32B7103232B0B23634B7329D PUSH1 0x89 SHL DUP2 MSTORE POP DUP8 PUSH3 0x246 PUSH1 0x20 SHL PUSH3 0xB26 OR PUSH1 0x20 SHR JUMP JUMPDEST TIMESTAMP DUP7 GT PUSH3 0x144 JUMPI PUSH1 0x40 MLOAD PUSH3 0x461BCD PUSH1 0xE5 SHL DUP2 MSTORE PUSH1 0x4 ADD PUSH3 0x9C SWAP1 PUSH3 0x616 JUMP JUMPDEST PUSH1 0x0 DUP8 GT PUSH3 0x167 JUMPI PUSH1 0x40 MLOAD PUSH3 0x461BCD PUSH1 0xE5 SHL DUP2 MSTORE PUSH1 0x4 ADD PUSH3 0x9C SWAP1 PUSH3 0x568 JUMP JUMPDEST PUSH1 0x0 DUP6 GT PUSH3 0x18A JUMPI PUSH1 0x40 MLOAD PUSH3 0x461BCD PUSH1 0xE5 SHL DUP2 MSTORE PUSH1 0x4 ADD PUSH3 0x9C SWAP1 PUSH3 0x5B3 JUMP JUMPDEST PUSH1 0x0 DUP1 SLOAD PUSH1 0x1 PUSH1 0x1 PUSH1 0xA0 SHL SUB NOT AND PUSH1 0x1 PUSH1 0x1 PUSH1 0xA0 SHL SUB DUP11 AND OR SWAP1 SSTORE PUSH1 0x1 DUP8 SWAP1 SSTORE PUSH1 0x2 DUP7 SWAP1 SSTORE PUSH1 0x3 DUP6 SWAP1 SSTORE DUP4 MLOAD PUSH3 0x1C9 SWAP1 PUSH1 0x7 SWAP1 PUSH1 0x20 DUP8 ADD SWAP1 PUSH3 0x31B JUMP JUMPDEST POP DUP3 MLOAD PUSH3 0x1DF SWAP1 PUSH1 0x8 SWAP1 PUSH1 0x20 DUP7 ADD SWAP1 PUSH3 0x31B JUMP JUMPDEST POP PUSH1 0x0 PUSH1 0x5 SSTORE DUP2 MLOAD PUSH3 0x1FA SWAP1 PUSH1 0x9 SWAP1 PUSH1 0x20 DUP6 ADD SWAP1 PUSH3 0x31B JUMP JUMPDEST POP PUSH3 0x206 DUP2 PUSH3 0x297 JUMP JUMPDEST PUSH1 0xA DUP1 SLOAD PUSH2 0xFF00 NOT AND PUSH2 0x100 DUP4 PUSH1 0x1 DUP2 GT ISZERO PUSH3 0x233 JUMPI PUSH4 0x4E487B71 PUSH1 0xE0 SHL PUSH1 0x0 MSTORE PUSH1 0x21 PUSH1 0x4 MSTORE PUSH1 0x24 PUSH1 0x0 REVERT JUMPDEST MUL OR SWAP1 SSTORE POP POP POP POP POP POP POP POP POP PUSH3 0x70C JUMP JUMPDEST PUSH3 0x293 DUP3 DUP3 PUSH1 0x40 MLOAD PUSH1 0x24 ADD PUSH3 0x25F SWAP3 SWAP2 SWAP1 PUSH3 0x52B JUMP JUMPDEST PUSH1 0x40 DUP1 MLOAD PUSH1 0x1F NOT DUP2 DUP5 SUB ADD DUP2 MSTORE SWAP2 SWAP1 MSTORE PUSH1 0x20 DUP2 ADD DUP1 MLOAD PUSH1 0x1 PUSH1 0x1 PUSH1 0xE0 SHL SUB SWAP1 DUP2 AND PUSH4 0x2D839CB3 PUSH1 0xE2 SHL OR SWAP1 SWAP2 MSTORE PUSH3 0x2D4 AND JUMP JUMPDEST POP POP JUMP JUMPDEST PUSH1 0x0 PUSH1 0x2 DUP3 LT PUSH3 0x2BC JUMPI PUSH1 0x40 MLOAD PUSH3 0x461BCD PUSH1 0xE5 SHL DUP2 MSTORE PUSH1 0x4 ADD PUSH3 0x9C SWAP1 PUSH3 0x5EA JUMP JUMPDEST DUP2 PUSH3 0x2CB JUMPI POP PUSH1 0x0 PUSH3 0x2CF JUMP JUMPDEST POP PUSH1 0x1 JUMPDEST SWAP2 SWAP1 POP JUMP JUMPDEST PUSH3 0x2F4 DUP2 PUSH3 0x2EF PUSH3 0xB6B PUSH3 0x2F7 PUSH1 0x20 SHL OR PUSH3 0x318 JUMP JUMPDEST PUSH1 0x20 SHR JUMP JUMPDEST POP JUMP JUMPDEST PUSH1 0x0 PUSH11 0x636F6E736F6C652E6C6F67 SWAP1 POP PUSH1 0x0 DUP1 DUP4 MLOAD PUSH1 0x20 DUP6 ADD DUP5 GAS STATICCALL POP POP POP JUMP JUMPDEST SWAP1 JUMP JUMPDEST DUP3 DUP1 SLOAD PUSH3 0x329 SWAP1 PUSH3 0x6B9 JUMP JUMPDEST SWAP1 PUSH1 0x0 MSTORE PUSH1 0x20 PUSH1 0x0 KECCAK256 SWAP1 PUSH1 0x1F ADD PUSH1 0x20 SWAP1 DIV DUP2 ADD SWAP3 DUP3 PUSH3 0x34D JUMPI PUSH1 0x0 DUP6 SSTORE PUSH3 0x398 JUMP JUMPDEST DUP3 PUSH1 0x1F LT PUSH3 0x368 JUMPI DUP1 MLOAD PUSH1 0xFF NOT AND DUP4 DUP1 ADD OR DUP6 SSTORE PUSH3 0x398 JUMP JUMPDEST DUP3 DUP1 ADD PUSH1 0x1 ADD DUP6 SSTORE DUP3 ISZERO PUSH3 0x398 JUMPI SWAP2 DUP3 ADD JUMPDEST DUP3 DUP2 GT ISZERO PUSH3 0x398 JUMPI DUP3 MLOAD DUP3 SSTORE SWAP2 PUSH1 0x20 ADD SWAP2 SWAP1 PUSH1 0x1 ADD SWAP1 PUSH3 0x37B JUMP JUMPDEST POP PUSH3 0x3A6 SWAP3 SWAP2 POP PUSH3 0x3AA JUMP JUMPDEST POP SWAP1 JUMP JUMPDEST JUMPDEST DUP1 DUP3 GT ISZERO PUSH3 0x3A6 JUMPI PUSH1 0x0 DUP2 SSTORE PUSH1 0x1 ADD PUSH3 0x3AB JUMP JUMPDEST DUP1 MLOAD PUSH1 0x1 PUSH1 0x1 PUSH1 0xA0 SHL SUB DUP2 AND DUP2 EQ PUSH3 0x2CF JUMPI PUSH1 0x0 DUP1 REVERT JUMPDEST PUSH1 0x0 DUP3 PUSH1 0x1F DUP4 ADD SLT PUSH3 0x3EA JUMPI DUP1 DUP2 REVERT JUMPDEST DUP2 MLOAD PUSH1 0x1 PUSH1 0x1 PUSH1 0x40 SHL SUB DUP1 DUP3 GT ISZERO PUSH3 0x407 JUMPI PUSH3 0x407 PUSH3 0x6F6 JUMP JUMPDEST PUSH1 0x40 MLOAD PUSH1 0x1F DUP4 ADD PUSH1 0x1F NOT AND DUP2 ADD PUSH1 0x20 ADD DUP3 DUP2 GT DUP3 DUP3 LT OR ISZERO PUSH3 0x42E JUMPI PUSH3 0x42E PUSH3 0x6F6 JUMP JUMPDEST PUSH1 0x40 MSTORE DUP3 DUP2 MSTORE DUP5 DUP4 ADD PUSH1 0x20 ADD DUP7 LT ISZERO PUSH3 0x446 JUMPI DUP4 DUP5 REVERT JUMPDEST PUSH3 0x459 DUP4 PUSH1 0x20 DUP4 ADD PUSH1 0x20 DUP9 ADD PUSH3 0x686 JUMP JUMPDEST SWAP6 SWAP5 POP POP POP POP POP JUMP JUMPDEST PUSH1 0x0 DUP1 PUSH1 0x0 DUP1 PUSH1 0x0 DUP1 PUSH1 0x0 DUP1 PUSH2 0x100 DUP10 DUP12 SUB SLT ISZERO PUSH3 0x47F JUMPI DUP4 DUP5 REVERT JUMPDEST PUSH3 0x48A DUP10 PUSH3 0x3C1 JUMP JUMPDEST PUSH1 0x20 DUP11 ADD MLOAD PUSH1 0x40 DUP12 ADD MLOAD PUSH1 0x60 DUP13 ADD MLOAD PUSH1 0x80 DUP14 ADD MLOAD SWAP4 SWAP12 POP SWAP2 SWAP10 POP SWAP8 POP SWAP6 POP PUSH1 0x1 PUSH1 0x1 PUSH1 0x40 SHL SUB DUP1 DUP3 GT ISZERO PUSH3 0x4BD JUMPI DUP6 DUP7 REVERT JUMPDEST PUSH3 0x4CB DUP13 DUP4 DUP14 ADD PUSH3 0x3D9 JUMP JUMPDEST SWAP6 POP PUSH1 0xA0 DUP12 ADD MLOAD SWAP2 POP DUP1 DUP3 GT ISZERO PUSH3 0x4E1 JUMPI DUP5 DUP6 REVERT JUMPDEST PUSH3 0x4EF DUP13 DUP4 DUP14 ADD PUSH3 0x3D9 JUMP JUMPDEST SWAP5 POP PUSH1 0xC0 DUP12 ADD MLOAD SWAP2 POP DUP1 DUP3 GT ISZERO PUSH3 0x505 JUMPI DUP4 DUP5 REVERT JUMPDEST POP PUSH3 0x514 DUP12 DUP3 DUP13 ADD PUSH3 0x3D9 JUMP JUMPDEST SWAP3 POP POP PUSH1 0xE0 DUP10 ADD MLOAD SWAP1 POP SWAP3 SWAP6 SWAP9 POP SWAP3 SWAP6 SWAP9 SWAP1 SWAP4 SWAP7 POP JUMP JUMPDEST PUSH1 0x0 PUSH1 0x40 DUP3 MSTORE DUP4 MLOAD DUP1 PUSH1 0x40 DUP5 ADD MSTORE PUSH3 0x54C DUP2 PUSH1 0x60 DUP6 ADD PUSH1 0x20 DUP9 ADD PUSH3 0x686 JUMP JUMPDEST PUSH1 0x20 DUP4 ADD SWAP4 SWAP1 SWAP4 MSTORE POP PUSH1 0x1F SWAP2 SWAP1 SWAP2 ADD PUSH1 0x1F NOT AND ADD PUSH1 0x60 ADD SWAP2 SWAP1 POP JUMP JUMPDEST PUSH1 0x20 DUP1 DUP3 MSTORE PUSH1 0x2B SWAP1 DUP3 ADD MSTORE PUSH32 0x4D696E696D756D20636F6E747269627574696F6E206D75737420626520677265 PUSH1 0x40 DUP3 ADD MSTORE PUSH11 0x61746572207468616E203 PUSH1 0xAC SHL PUSH1 0x60 DUP3 ADD MSTORE PUSH1 0x80 ADD SWAP1 JUMP JUMPDEST PUSH1 0x20 DUP1 DUP3 MSTORE PUSH1 0x1D SWAP1 DUP3 ADD MSTORE PUSH32 0x546172676574206D7573742062652067726561746572207468616E2030000000 PUSH1 0x40 DUP3 ADD MSTORE PUSH1 0x60 ADD SWAP1 JUMP JUMPDEST PUSH1 0x20 DUP1 DUP3 MSTORE PUSH1 0x12 SWAP1 DUP3 ADD MSTORE PUSH18 0x496E646578206F7574206F662072616E6765 PUSH1 0x70 SHL PUSH1 0x40 DUP3 ADD MSTORE PUSH1 0x60 ADD SWAP1 JUMP JUMPDEST PUSH1 0x20 DUP1 DUP3 MSTORE PUSH1 0x1E SWAP1 DUP3 ADD MSTORE PUSH32 0x446561646C696E65206D75737420626520696E20746865206675747572650000 PUSH1 0x40 DUP3 ADD MSTORE PUSH1 0x60 ADD SWAP1 JUMP JUMPDEST PUSH1 0x20 DUP1 DUP3 MSTORE PUSH1 0x11 SWAP1 DUP3 ADD MSTORE PUSH17 0x125B9D985B1A59081CD8DA195B59481A59 PUSH1 0x7A SHL PUSH1 0x40 DUP3 ADD MSTORE PUSH1 0x60 ADD SWAP1 JUMP JUMPDEST SWAP2 DUP3 MSTORE PUSH1 0x20 DUP3 ADD MSTORE PUSH1 0x40 ADD SWAP1 JUMP JUMPDEST PUSH1 0x0 JUMPDEST DUP4 DUP2 LT ISZERO PUSH3 0x6A3 JUMPI DUP2 DUP2 ADD MLOAD DUP4 DUP3 ADD MSTORE PUSH1 0x20 ADD PUSH3 0x689 JUMP JUMPDEST DUP4 DUP2 GT ISZERO PUSH3 0x6B3 JUMPI PUSH1 0x0 DUP5 DUP5 ADD MSTORE JUMPDEST POP POP POP POP JUMP JUMPDEST PUSH1 0x2 DUP2 DIV PUSH1 0x1 DUP3 AND DUP1 PUSH3 0x6CE JUMPI PUSH1 0x7F DUP3 AND SWAP2 POP JUMPDEST PUSH1 0x20 DUP3 LT DUP2 EQ ISZERO PUSH3 0x6F0 JUMPI PUSH4 0x4E487B71 PUSH1 0xE0 SHL PUSH1 0x0 MSTORE PUSH1 0x22 PUSH1 0x4 MSTORE PUSH1 0x24 PUSH1 0x0 REVERT JUMPDEST POP SWAP2 SWAP1 POP JUMP JUMPDEST PUSH4 0x4E487B71 PUSH1 0xE0 SHL PUSH1 0x0 MSTORE PUSH1 0x41 PUSH1 0x4 MSTORE PUSH1 0x24 PUSH1 0x0 REVERT JUMPDEST PUSH2 0x1182 DUP1 PUSH3 0x71C PUSH1 0x0 CODECOPY PUSH1 0x0 RETURN INVALID PUSH1 0x80 PUSH1 0x40 MSTORE PUSH1 0x4 CALLDATASIZE LT PUSH2 0xFE JUMPI PUSH1 0x0 CALLDATALOAD PUSH1 0xE0 SHR DUP1 PUSH4 0x8D27289E GT PUSH2 0x95 JUMPI DUP1 PUSH4 0xB82C86D6 GT PUSH2 0x64 JUMPI DUP1 PUSH4 0xB82C86D6 EQ PUSH2 0x23D JUMPI DUP1 PUSH4 0xC19D93FB EQ PUSH2 0x252 JUMPI DUP1 PUSH4 0xC3E20C9F EQ PUSH2 0x274 JUMPI DUP1 PUSH4 0xC59EE1DC EQ PUSH2 0x289 JUMPI DUP1 PUSH4 0xD7BB99BA EQ PUSH2 0x29E JUMPI PUSH2 0xFE JUMP JUMPDEST DUP1 PUSH4 0x8D27289E EQ PUSH2 0x1DD JUMPI DUP1 PUSH4 0x937E09B1 EQ PUSH2 0x1E5 JUMPI DUP1 PUSH4 0x9D43B9B5 EQ PUSH2 0x1FA JUMPI DUP1 PUSH4 0xA00C96D7 EQ PUSH2 0x20F JUMPI PUSH2 0xFE JUMP JUMPDEST DUP1 PUSH4 0x4E260F6F GT PUSH2 0xD1 JUMPI DUP1 PUSH4 0x4E260F6F EQ PUSH2 0x17C JUMPI DUP1 PUSH4 0x6EEF7D95 EQ PUSH2 0x191 JUMPI DUP1 PUSH4 0x6F9FB98A EQ PUSH2 0x1B3 JUMPI DUP1 PUSH4 0x7A9A8055 EQ PUSH2 0x1C8 JUMPI PUSH2 0xFE JUMP JUMPDEST DUP1 PUSH4 0x2D05D3F EQ PUSH2 0x103 JUMPI DUP1 PUSH4 0x3C29D58 EQ PUSH2 0x12E JUMPI DUP1 PUSH4 0x29DCB0CF EQ PUSH2 0x150 JUMPI DUP1 PUSH4 0x3D0300BD EQ PUSH2 0x172 JUMPI JUMPDEST PUSH1 0x0 DUP1 REVERT JUMPDEST CALLVALUE DUP1 ISZERO PUSH2 0x10F JUMPI PUSH1 0x0 DUP1 REVERT JUMPDEST POP PUSH2 0x118 PUSH2 0x2A6 JUMP JUMPDEST PUSH1 0x40 MLOAD PUSH2 0x125 SWAP2 SWAP1 PUSH2 0xCC3 JUMP JUMPDEST PUSH1 0x40 MLOAD DUP1 SWAP2 SUB SWAP1 RETURN JUMPDEST CALLVALUE DUP1 ISZERO PUSH2 0x13A JUMPI PUSH1 0x0 DUP1 REVERT JUMPDEST POP PUSH2 0x143 PUSH2 0x2B5 JUMP JUMPDEST PUSH1 0x40 MLOAD PUSH2 0x125 SWAP2 SWAP1 PUSH2 0xDDB JUMP JUMPDEST CALLVALUE DUP1 ISZERO PUSH2 0x15C JUMPI PUSH1 0x0 DUP1 REVERT JUMPDEST POP PUSH2 0x165 PUSH2 0x343 JUMP JUMPDEST PUSH1 0x40 MLOAD PUSH2 0x125 SWAP2 SWAP1 PUSH2 0x1086 JUMP JUMPDEST PUSH2 0x17A PUSH2 0x349 JUMP JUMPDEST STOP JUMPDEST CALLVALUE DUP1 ISZERO PUSH2 0x188 JUMPI PUSH1 0x0 DUP1 REVERT JUMPDEST POP PUSH2 0x165 PUSH2 0x474 JUMP JUMPDEST CALLVALUE DUP1 ISZERO PUSH2 0x19D JUMPI PUSH1 0x0 DUP1 REVERT JUMPDEST POP PUSH2 0x1A6 PUSH2 0x47A JUMP JUMPDEST PUSH1 0x40 MLOAD PUSH2 0x125 SWAP2 SWAP1 PUSH2 0xDAD JUMP JUMPDEST CALLVALUE DUP1 ISZERO PUSH2 0x1BF JUMPI PUSH1 0x0 DUP1 REVERT JUMPDEST POP PUSH2 0x165 PUSH2 0x488 JUMP JUMPDEST CALLVALUE DUP1 ISZERO PUSH2 0x1D4 JUMPI PUSH1 0x0 DUP1 REVERT JUMPDEST POP PUSH2 0x143 PUSH2 0x48C JUMP JUMPDEST PUSH2 0x17A PUSH2 0x499 JUMP JUMPDEST CALLVALUE DUP1 ISZERO PUSH2 0x1F1 JUMPI PUSH1 0x0 DUP1 REVERT JUMPDEST POP PUSH2 0x165 PUSH2 0x69F JUMP JUMPDEST CALLVALUE DUP1 ISZERO PUSH2 0x206 JUMPI PUSH1 0x0 DUP1 REVERT JUMPDEST POP PUSH2 0x165 PUSH2 0x6A5 JUMP JUMPDEST CALLVALUE DUP1 ISZERO PUSH2 0x21B JUMPI PUSH1 0x0 DUP1 REVERT JUMPDEST POP PUSH2 0x224 PUSH2 0x6AB JUMP JUMPDEST PUSH1 0x40 MLOAD PUSH2 0x125 SWAP14 SWAP13 SWAP12 SWAP11 SWAP10 SWAP9 SWAP8 SWAP7 SWAP6 SWAP5 SWAP4 SWAP3 SWAP2 SWAP1 PUSH2 0xD11 JUMP JUMPDEST CALLVALUE DUP1 ISZERO PUSH2 0x249 JUMPI PUSH1 0x0 DUP1 REVERT JUMPDEST POP PUSH2 0x165 PUSH2 0x8E0 JUMP JUMPDEST CALLVALUE DUP1 ISZERO PUSH2 0x25E JUMPI PUSH1 0x0 DUP1 REVERT JUMPDEST POP PUSH2 0x267 PUSH2 0x8E6 JUMP JUMPDEST PUSH1 0x40 MLOAD PUSH2 0x125 SWAP2 SWAP1 PUSH2 0xDC7 JUMP JUMPDEST CALLVALUE DUP1 ISZERO PUSH2 0x280 JUMPI PUSH1 0x0 DUP1 REVERT JUMPDEST POP PUSH2 0x143 PUSH2 0x8EF JUMP JUMPDEST CALLVALUE DUP1 ISZERO PUSH2 0x295 JUMPI PUSH1 0x0 DUP1 REVERT JUMPDEST POP PUSH2 0x165 PUSH2 0x8FC JUMP JUMPDEST PUSH2 0x17A PUSH2 0x902 JUMP JUMPDEST PUSH1 0x0 SLOAD PUSH1 0x1 PUSH1 0x1 PUSH1 0xA0 SHL SUB AND DUP2 JUMP JUMPDEST PUSH1 0x8 DUP1 SLOAD PUSH2 0x2C2 SWAP1 PUSH2 0x10B5 JUMP JUMPDEST DUP1 PUSH1 0x1F ADD PUSH1 0x20 DUP1 SWAP2 DIV MUL PUSH1 0x20 ADD PUSH1 0x40 MLOAD SWAP1 DUP2 ADD PUSH1 0x40 MSTORE DUP1 SWAP3 SWAP2 SWAP1 DUP2 DUP2 MSTORE PUSH1 0x20 ADD DUP3 DUP1 SLOAD PUSH2 0x2EE SWAP1 PUSH2 0x10B5 JUMP JUMPDEST DUP1 ISZERO PUSH2 0x33B JUMPI DUP1 PUSH1 0x1F LT PUSH2 0x310 JUMPI PUSH2 0x100 DUP1 DUP4 SLOAD DIV MUL DUP4 MSTORE SWAP2 PUSH1 0x20 ADD SWAP2 PUSH2 0x33B JUMP JUMPDEST DUP3 ADD SWAP2 SWAP1 PUSH1 0x0 MSTORE PUSH1 0x20 PUSH1 0x0 KECCAK256 SWAP1 JUMPDEST DUP2 SLOAD DUP2 MSTORE SWAP1 PUSH1 0x1 ADD SWAP1 PUSH1 0x20 ADD DUP1 DUP4 GT PUSH2 0x31E JUMPI DUP3 SWAP1 SUB PUSH1 0x1F AND DUP3 ADD SWAP2 JUMPDEST POP POP POP POP POP DUP2 JUMP JUMPDEST PUSH1 0x2 SLOAD DUP2 JUMP JUMPDEST PUSH1 0x0 SLOAD PUSH1 0x1 PUSH1 0x1 PUSH1 0xA0 SHL SUB AND CALLER EQ PUSH2 0x37C JUMPI PUSH1 0x40 MLOAD PUSH3 0x461BCD PUSH1 0xE5 SHL DUP2 MSTORE PUSH1 0x4 ADD PUSH2 0x373 SWAP1 PUSH2 0xEAB JUMP JUMPDEST PUSH1 0x40 MLOAD DUP1 SWAP2 SUB SWAP1 REVERT JUMPDEST PUSH1 0x1 PUSH1 0xA SLOAD PUSH1 0xFF AND PUSH1 0x3 DUP2 GT ISZERO PUSH2 0x3A3 JUMPI PUSH4 0x4E487B71 PUSH1 0xE0 SHL PUSH1 0x0 MSTORE PUSH1 0x21 PUSH1 0x4 MSTORE PUSH1 0x24 PUSH1 0x0 REVERT JUMPDEST EQ PUSH2 0x3C0 JUMPI PUSH1 0x40 MLOAD PUSH3 0x461BCD PUSH1 0xE5 SHL DUP2 MSTORE PUSH1 0x4 ADD PUSH2 0x373 SWAP1 PUSH2 0xEFB JUMP JUMPDEST PUSH1 0x2 SLOAD TIMESTAMP LT PUSH2 0x3E1 JUMPI PUSH1 0x40 MLOAD PUSH3 0x461BCD PUSH1 0xE5 SHL DUP2 MSTORE PUSH1 0x4 ADD PUSH2 0x373 SWAP1 PUSH2 0xE17 JUMP JUMPDEST PUSH1 0x0 DUP1 SLOAD PUSH1 0x5 SLOAD PUSH1 0x40 MLOAD PUSH1 0x1 PUSH1 0x1 PUSH1 0xA0 SHL SUB SWAP1 SWAP3 AND SWAP3 DUP2 ISZERO PUSH2 0x8FC MUL SWAP3 SWAP1 DUP2 DUP2 DUP2 DUP6 DUP9 DUP9 CALL SWAP4 POP POP POP POP ISZERO DUP1 ISZERO PUSH2 0x41C JUMPI RETURNDATASIZE PUSH1 0x0 DUP1 RETURNDATACOPY RETURNDATASIZE PUSH1 0x0 REVERT JUMPDEST POP PUSH1 0xA DUP1 SLOAD PUSH1 0xFF NOT AND PUSH1 0x2 OR SWAP1 SSTORE PUSH1 0x0 SLOAD PUSH1 0x5 SLOAD PUSH1 0x40 MLOAD PUSH32 0xC364254574C58E1BDD9077B0E35E609EE391CA636748A275674D5FB5BDC1D3F6 SWAP3 PUSH2 0x46A SWAP3 PUSH1 0x1 PUSH1 0x1 PUSH1 0xA0 SHL SUB SWAP1 SWAP2 AND SWAP2 PUSH2 0xCD7 JUMP JUMPDEST PUSH1 0x40 MLOAD DUP1 SWAP2 SUB SWAP1 LOG1 JUMP JUMPDEST PUSH1 0x6 SLOAD DUP2 JUMP JUMPDEST PUSH1 0xA SLOAD PUSH2 0x100 SWAP1 DIV PUSH1 0xFF AND DUP2 JUMP JUMPDEST SELFBALANCE SWAP1 JUMP JUMPDEST PUSH1 0x9 DUP1 SLOAD PUSH2 0x2C2 SWAP1 PUSH2 0x10B5 JUMP JUMPDEST PUSH1 0x0 SLOAD PUSH1 0x1 PUSH1 0x1 PUSH1 0xA0 SHL SUB AND CALLER EQ PUSH2 0x4C3 JUMPI PUSH1 0x40 MLOAD PUSH3 0x461BCD PUSH1 0xE5 SHL DUP2 MSTORE PUSH1 0x4 ADD PUSH2 0x373 SWAP1 PUSH2 0xEAB JUMP JUMPDEST PUSH1 0x2 SLOAD TIMESTAMP LT PUSH2 0x4E4 JUMPI PUSH1 0x40 MLOAD PUSH3 0x461BCD PUSH1 0xE5 SHL DUP2 MSTORE PUSH1 0x4 ADD PUSH2 0x373 SWAP1 PUSH2 0x103A JUMP JUMPDEST PUSH1 0x0 PUSH1 0xA SLOAD PUSH1 0xFF AND PUSH1 0x3 DUP2 GT ISZERO PUSH2 0x50B JUMPI PUSH4 0x4E487B71 PUSH1 0xE0 SHL PUSH1 0x0 MSTORE PUSH1 0x21 PUSH1 0x4 MSTORE PUSH1 0x24 PUSH1 0x0 REVERT JUMPDEST EQ DUP1 PUSH2 0x53B JUMPI POP PUSH1 0x1 PUSH1 0xA SLOAD PUSH1 0xFF AND PUSH1 0x3 DUP2 GT ISZERO PUSH2 0x539 JUMPI PUSH4 0x4E487B71 PUSH1 0xE0 SHL PUSH1 0x0 MSTORE PUSH1 0x21 PUSH1 0x4 MSTORE PUSH1 0x24 PUSH1 0x0 REVERT JUMPDEST EQ JUMPDEST PUSH2 0x557 JUMPI PUSH1 0x40 MLOAD PUSH3 0x461BCD PUSH1 0xE5 SHL DUP2 MSTORE PUSH1 0x4 ADD PUSH2 0x373 SWAP1 PUSH2 0xE66 JUMP JUMPDEST PUSH1 0x0 JUMPDEST PUSH1 0x6 SLOAD DUP2 LT ISZERO PUSH2 0x65B JUMPI PUSH1 0xB DUP2 DUP2 SLOAD DUP2 LT PUSH2 0x585 JUMPI PUSH4 0x4E487B71 PUSH1 0xE0 SHL PUSH1 0x0 MSTORE PUSH1 0x32 PUSH1 0x4 MSTORE PUSH1 0x24 PUSH1 0x0 REVERT JUMPDEST PUSH1 0x0 SWAP2 DUP3 MSTORE PUSH1 0x20 SWAP1 SWAP2 KECCAK256 PUSH1 0x2 SWAP1 SWAP2 MUL ADD SLOAD PUSH1 0xB DUP1 SLOAD PUSH1 0x1 PUSH1 0x1 PUSH1 0xA0 SHL SUB SWAP1 SWAP3 AND SWAP2 PUSH2 0x8FC SWAP2 SWAP1 DUP5 SWAP1 DUP2 LT PUSH2 0x5C9 JUMPI PUSH4 0x4E487B71 PUSH1 0xE0 SHL PUSH1 0x0 MSTORE PUSH1 0x32 PUSH1 0x4 MSTORE PUSH1 0x24 PUSH1 0x0 REVERT JUMPDEST SWAP1 PUSH1 0x0 MSTORE PUSH1 0x20 PUSH1 0x0 KECCAK256 SWAP1 PUSH1 0x2 MUL ADD PUSH1 0x1 ADD SLOAD SWAP1 DUP2 ISZERO MUL SWAP1 PUSH1 0x40 MLOAD PUSH1 0x0 PUSH1 0x40 MLOAD DUP1 DUP4 SUB DUP2 DUP6 DUP9 DUP9 CALL SWAP4 POP POP POP POP ISZERO DUP1 ISZERO PUSH2 0x606 JUMPI RETURNDATASIZE PUSH1 0x0 DUP1 RETURNDATACOPY RETURNDATASIZE PUSH1 0x0 REVERT JUMPDEST POP PUSH1 0xB DUP2 DUP2 SLOAD DUP2 LT PUSH2 0x628 JUMPI PUSH4 0x4E487B71 PUSH1 0xE0 SHL PUSH1 0x0 MSTORE PUSH1 0x32 PUSH1 0x4 MSTORE PUSH1 0x24 PUSH1 0x0 REVERT JUMPDEST PUSH1 0x0 SWAP2 DUP3 MSTORE PUSH1 0x20 DUP3 KECCAK256 PUSH1 0x2 SWAP1 SWAP2 MUL ADD DUP1 SLOAD PUSH1 0x1 PUSH1 0x1 PUSH1 0xA0 SHL SUB NOT AND DUP2 SSTORE PUSH1 0x1 ADD SSTORE DUP1 PUSH2 0x653 DUP2 PUSH2 0x1110 JUMP JUMPDEST SWAP2 POP POP PUSH2 0x55A JUMP JUMPDEST POP PUSH1 0xA DUP1 SLOAD PUSH1 0xFF NOT AND PUSH1 0x3 OR SWAP1 SSTORE PUSH1 0x6 SLOAD PUSH1 0x5 SLOAD PUSH1 0x40 MLOAD PUSH32 0xD69EAE259B3E1E42F22F60A8A54DBF4D1983D006A10D5F36C068CCC87EB49391 SWAP3 PUSH2 0x46A SWAP3 SWAP1 SWAP2 PUSH2 0x108F JUMP JUMPDEST PUSH1 0x1 SLOAD DUP2 JUMP JUMPDEST PUSH1 0x4 SLOAD DUP2 JUMP JUMPDEST PUSH1 0x0 DUP1 SLOAD PUSH1 0x1 SLOAD PUSH1 0x2 SLOAD PUSH1 0x3 SLOAD PUSH1 0x4 SLOAD PUSH1 0x5 SLOAD PUSH1 0x7 DUP1 SLOAD PUSH1 0x1 PUSH1 0x1 PUSH1 0xA0 SHL SUB SWAP1 SWAP8 AND SWAP8 SWAP6 SWAP7 SWAP5 SWAP6 SWAP4 SWAP5 SWAP3 SWAP4 SWAP2 SWAP3 PUSH1 0x60 SWAP3 DUP4 SWAP3 SWAP1 SWAP2 DUP3 SWAP2 DUP5 SWAP2 DUP4 SWAP2 DUP3 SWAP2 PUSH2 0x6F0 SWAP1 PUSH2 0x10B5 JUMP JUMPDEST DUP1 PUSH1 0x1F ADD PUSH1 0x20 DUP1 SWAP2 DIV MUL PUSH1 0x20 ADD PUSH1 0x40 MLOAD SWAP1 DUP2 ADD PUSH1 0x40 MSTORE DUP1 SWAP3 SWAP2 SWAP1 DUP2 DUP2 MSTORE PUSH1 0x20 ADD DUP3 DUP1 SLOAD PUSH2 0x71C SWAP1 PUSH2 0x10B5 JUMP JUMPDEST DUP1 ISZERO PUSH2 0x769 JUMPI DUP1 PUSH1 0x1F LT PUSH2 0x73E JUMPI PUSH2 0x100 DUP1 DUP4 SLOAD DIV MUL DUP4 MSTORE SWAP2 PUSH1 0x20 ADD SWAP2 PUSH2 0x769 JUMP JUMPDEST DUP3 ADD SWAP2 SWAP1 PUSH1 0x0 MSTORE PUSH1 0x20 PUSH1 0x0 KECCAK256 SWAP1 JUMPDEST DUP2 SLOAD DUP2 MSTORE SWAP1 PUSH1 0x1 ADD SWAP1 PUSH1 0x20 ADD DUP1 DUP4 GT PUSH2 0x74C JUMPI DUP3 SWAP1 SUB PUSH1 0x1F AND DUP3 ADD SWAP2 JUMPDEST POP POP POP POP POP SWAP7 POP PUSH1 0x8 DUP1 SLOAD PUSH2 0x77D SWAP1 PUSH2 0x10B5 JUMP JUMPDEST DUP1 PUSH1 0x1F ADD PUSH1 0x20 DUP1 SWAP2 DIV MUL PUSH1 0x20 ADD PUSH1 0x40 MLOAD SWAP1 DUP2 ADD PUSH1 0x40 MSTORE DUP1 SWAP3 SWAP2 SWAP1 DUP2 DUP2 MSTORE PUSH1 0x20 ADD DUP3 DUP1 SLOAD PUSH2 0x7A9 SWAP1 PUSH2 0x10B5 JUMP JUMPDEST DUP1 ISZERO PUSH2 0x7F6 JUMPI DUP1 PUSH1 0x1F LT PUSH2 0x7CB JUMPI PUSH2 0x100 DUP1 DUP4 SLOAD DIV MUL DUP4 MSTORE SWAP2 PUSH1 0x20 ADD SWAP2 PUSH2 0x7F6 JUMP JUMPDEST DUP3 ADD SWAP2 SWAP1 PUSH1 0x0 MSTORE PUSH1 0x20 PUSH1 0x0 KECCAK256 SWAP1 JUMPDEST DUP2 SLOAD DUP2 MSTORE SWAP1 PUSH1 0x1 ADD SWAP1 PUSH1 0x20 ADD DUP1 DUP4 GT PUSH2 0x7D9 JUMPI DUP3 SWAP1 SUB PUSH1 0x1F AND DUP3 ADD SWAP2 JUMPDEST POP POP PUSH1 0xA SLOAD PUSH1 0x9 DUP1 SLOAD SWAP6 SWAP12 POP PUSH1 0xFF SWAP1 SWAP2 AND SWAP10 POP SELFBALANCE SWAP9 POP SWAP4 PUSH2 0x81B SWAP4 POP SWAP2 POP PUSH2 0x10B5 SWAP1 POP JUMP JUMPDEST DUP1 PUSH1 0x1F ADD PUSH1 0x20 DUP1 SWAP2 DIV MUL PUSH1 0x20 ADD PUSH1 0x40 MLOAD SWAP1 DUP2 ADD PUSH1 0x40 MSTORE DUP1 SWAP3 SWAP2 SWAP1 DUP2 DUP2 MSTORE PUSH1 0x20 ADD DUP3 DUP1 SLOAD PUSH2 0x847 SWAP1 PUSH2 0x10B5 JUMP JUMPDEST DUP1 ISZERO PUSH2 0x894 JUMPI DUP1 PUSH1 0x1F LT PUSH2 0x869 JUMPI PUSH2 0x100 DUP1 DUP4 SLOAD DIV MUL DUP4 MSTORE SWAP2 PUSH1 0x20 ADD SWAP2 PUSH2 0x894 JUMP JUMPDEST DUP3 ADD SWAP2 SWAP1 PUSH1 0x0 MSTORE PUSH1 0x20 PUSH1 0x0 KECCAK256 SWAP1 JUMPDEST DUP2 SLOAD DUP2 MSTORE SWAP1 PUSH1 0x1 ADD SWAP1 PUSH1 0x20 ADD DUP1 DUP4 GT PUSH2 0x877 JUMPI DUP3 SWAP1 SUB PUSH1 0x1F AND DUP3 ADD SWAP2 JUMPDEST POP POP POP POP POP SWAP3 POP PUSH1 0x6 SLOAD SWAP2 POP PUSH1 0xA PUSH1 0x1 SWAP1 SLOAD SWAP1 PUSH2 0x100 EXP SWAP1 DIV PUSH1 0xFF AND PUSH1 0x1 DUP2 GT ISZERO PUSH2 0x8CF JUMPI PUSH4 0x4E487B71 PUSH1 0xE0 SHL PUSH1 0x0 MSTORE PUSH1 0x21 PUSH1 0x4 MSTORE PUSH1 0x24 PUSH1 0x0 REVERT JUMPDEST SWAP1 POP SWAP1 SWAP2 SWAP3 SWAP4 SWAP5 SWAP6 SWAP7 SWAP8 SWAP9 SWAP10 SWAP11 SWAP12 SWAP13 JUMP JUMPDEST PUSH1 0x3 SLOAD DUP2 JUMP JUMPDEST PUSH1 0xA SLOAD PUSH1 0xFF AND DUP2 JUMP JUMPDEST PUSH1 0x7 DUP1 SLOAD PUSH2 0x2C2 SWAP1 PUSH2 0x10B5 JUMP JUMPDEST PUSH1 0x5 SLOAD DUP2 JUMP JUMPDEST PUSH1 0x0 PUSH1 0xA SLOAD PUSH1 0xFF AND PUSH1 0x3 DUP2 GT ISZERO PUSH2 0x929 JUMPI PUSH4 0x4E487B71 PUSH1 0xE0 SHL PUSH1 0x0 MSTORE PUSH1 0x21 PUSH1 0x4 MSTORE PUSH1 0x24 PUSH1 0x0 REVERT JUMPDEST EQ DUP1 PUSH2 0x959 JUMPI POP PUSH1 0x1 PUSH1 0xA SLOAD PUSH1 0xFF AND PUSH1 0x3 DUP2 GT ISZERO PUSH2 0x957 JUMPI PUSH4 0x4E487B71 PUSH1 0xE0 SHL PUSH1 0x0 MSTORE PUSH1 0x21 PUSH1 0x4 MSTORE PUSH1 0x24 PUSH1 0x0 REVERT JUMPDEST EQ JUMPDEST PUSH2 0x975 JUMPI PUSH1 0x40 MLOAD PUSH3 0x461BCD PUSH1 0xE5 SHL DUP2 MSTORE PUSH1 0x4 ADD PUSH2 0x373 SWAP1 PUSH2 0xF70 JUMP JUMPDEST PUSH1 0x2 SLOAD TIMESTAMP LT PUSH2 0x996 JUMPI PUSH1 0x40 MLOAD PUSH3 0x461BCD PUSH1 0xE5 SHL DUP2 MSTORE PUSH1 0x4 ADD PUSH2 0x373 SWAP1 PUSH2 0xFCC JUMP JUMPDEST PUSH1 0x1 SLOAD CALLVALUE LT ISZERO PUSH2 0x9B8 JUMPI PUSH1 0x40 MLOAD PUSH3 0x461BCD PUSH1 0xE5 SHL DUP2 MSTORE PUSH1 0x4 ADD PUSH2 0x373 SWAP1 PUSH2 0xF97 JUMP JUMPDEST CALLER PUSH1 0x0 PUSH2 0x9C4 DUP3 PUSH2 0xB8C JUMP JUMPDEST SWAP1 POP DUP1 PUSH1 0x0 NOT EQ ISZERO PUSH2 0xA7E JUMPI PUSH1 0x6 DUP1 SLOAD SWAP1 PUSH1 0x0 PUSH2 0x9E0 DUP4 PUSH2 0x1110 JUMP JUMPDEST SWAP1 SWAP2 SSTORE POP POP PUSH1 0x40 DUP1 MLOAD DUP1 DUP3 ADD SWAP1 SWAP2 MSTORE PUSH1 0x1 PUSH1 0x1 PUSH1 0xA0 SHL SUB DUP4 DUP2 AND DUP3 MSTORE CALLVALUE PUSH1 0x20 DUP4 ADD SWAP1 DUP2 MSTORE PUSH1 0xB DUP1 SLOAD PUSH1 0x1 DUP2 ADD DUP3 SSTORE PUSH1 0x0 SWAP2 SWAP1 SWAP2 MSTORE SWAP3 MLOAD PUSH32 0x175B7A638427703F0DBE7BB9BBF987A2551717B34E79F33B5B1008D1FA01DB9 PUSH1 0x2 SWAP1 SWAP5 MUL SWAP4 DUP5 ADD DUP1 SLOAD PUSH1 0x1 PUSH1 0x1 PUSH1 0xA0 SHL SUB NOT AND SWAP2 SWAP1 SWAP4 AND OR SWAP1 SWAP2 SSTORE MLOAD PUSH32 0x175B7A638427703F0DBE7BB9BBF987A2551717B34E79F33B5B1008D1FA01DBA SWAP1 SWAP2 ADD SSTORE PUSH2 0xAC6 JUMP JUMPDEST CALLVALUE PUSH1 0xB DUP3 DUP2 SLOAD DUP2 LT PUSH2 0xAA0 JUMPI PUSH4 0x4E487B71 PUSH1 0xE0 SHL PUSH1 0x0 MSTORE PUSH1 0x32 PUSH1 0x4 MSTORE PUSH1 0x24 PUSH1 0x0 REVERT JUMPDEST SWAP1 PUSH1 0x0 MSTORE PUSH1 0x20 PUSH1 0x0 KECCAK256 SWAP1 PUSH1 0x2 MUL ADD PUSH1 0x1 ADD PUSH1 0x0 DUP3 DUP3 SLOAD PUSH2 0xAC0 SWAP2 SWAP1 PUSH2 0x109D JUMP JUMPDEST SWAP1 SWAP2 SSTORE POP POP JUMPDEST CALLVALUE PUSH1 0x5 PUSH1 0x0 DUP3 DUP3 SLOAD PUSH2 0xAD8 SWAP2 SWAP1 PUSH2 0x109D JUMP JUMPDEST SWAP1 SWAP2 SSTORE POP POP PUSH1 0x5 SLOAD PUSH1 0x40 MLOAD PUSH32 0x5CDC4AB8D637538EAD6CC1904D4160343656C8C82BD266635CFD31AC008FFFE0 SWAP2 PUSH2 0xB12 SWAP2 DUP6 SWAP2 CALLVALUE SWAP2 PUSH2 0xCF0 JUMP JUMPDEST PUSH1 0x40 MLOAD DUP1 SWAP2 SUB SWAP1 LOG1 PUSH2 0xB22 PUSH2 0xC03 JUMP JUMPDEST POP POP JUMP JUMPDEST PUSH2 0xB22 DUP3 DUP3 PUSH1 0x40 MLOAD PUSH1 0x24 ADD PUSH2 0xB3C SWAP3 SWAP2 SWAP1 PUSH2 0xDF5 JUMP JUMPDEST PUSH1 0x40 DUP1 MLOAD PUSH1 0x1F NOT DUP2 DUP5 SUB ADD DUP2 MSTORE SWAP2 SWAP1 MSTORE PUSH1 0x20 DUP2 ADD DUP1 MLOAD PUSH1 0x1 PUSH1 0x1 PUSH1 0xE0 SHL SUB AND PUSH4 0x2D839CB3 PUSH1 0xE2 SHL OR SWAP1 MSTORE PUSH2 0xC31 JUMP JUMPDEST PUSH1 0x0 PUSH11 0x636F6E736F6C652E6C6F67 SWAP1 POP PUSH1 0x0 DUP1 DUP4 MLOAD PUSH1 0x20 DUP6 ADD DUP5 GAS STATICCALL POP POP POP JUMP JUMPDEST PUSH1 0x0 PUSH1 0x0 NOT DUP2 JUMPDEST PUSH1 0x6 SLOAD DUP2 SLT ISZERO PUSH2 0xBFC JUMPI PUSH1 0xB DUP2 DUP2 SLOAD DUP2 LT PUSH2 0xBBE JUMPI PUSH4 0x4E487B71 PUSH1 0xE0 SHL PUSH1 0x0 MSTORE PUSH1 0x32 PUSH1 0x4 MSTORE PUSH1 0x24 PUSH1 0x0 REVERT JUMPDEST PUSH1 0x0 SWAP2 DUP3 MSTORE PUSH1 0x20 SWAP1 SWAP2 KECCAK256 PUSH1 0x2 SWAP1 SWAP2 MUL ADD SLOAD PUSH1 0x1 PUSH1 0x1 PUSH1 0xA0 SHL SUB DUP6 DUP2 AND SWAP2 AND EQ ISZERO PUSH2 0xBEA JUMPI DUP1 SWAP2 POP PUSH2 0xBFC JUMP JUMPDEST DUP1 PUSH2 0xBF4 DUP2 PUSH2 0x10F0 JUMP JUMPDEST SWAP2 POP POP PUSH2 0xB93 JUMP JUMPDEST POP SWAP3 SWAP2 POP POP JUMP JUMPDEST PUSH1 0x3 SLOAD PUSH1 0x5 SLOAD LT ISZERO DUP1 ISZERO PUSH2 0xC18 JUMPI POP PUSH1 0x2 SLOAD TIMESTAMP LT JUMPDEST ISZERO PUSH2 0xC2F JUMPI PUSH1 0xA DUP1 SLOAD PUSH1 0xFF NOT AND PUSH1 0x1 OR SWAP1 SSTORE TIMESTAMP PUSH1 0x4 SSTORE JUMPDEST JUMP JUMPDEST PUSH2 0xC48 DUP2 PUSH2 0xC40 PUSH2 0xB6B PUSH2 0xC4B JUMP JUMPDEST PUSH4 0xFFFFFFFF AND JUMP JUMPDEST POP JUMP JUMPDEST SWAP1 JUMP JUMPDEST PUSH4 0x4E487B71 PUSH1 0xE0 SHL PUSH1 0x0 MSTORE PUSH1 0x51 PUSH1 0x4 MSTORE PUSH1 0x24 PUSH1 0x0 REVERT JUMPDEST PUSH1 0x4 DUP2 LT PUSH2 0xC74 JUMPI PUSH2 0xC74 PUSH2 0x1136 JUMP JUMPDEST SWAP1 MSTORE JUMP JUMPDEST PUSH1 0x0 DUP2 MLOAD DUP1 DUP5 MSTORE DUP2 JUMPDEST DUP2 DUP2 LT ISZERO PUSH2 0xC9D JUMPI PUSH1 0x20 DUP2 DUP6 ADD DUP2 ADD MLOAD DUP7 DUP4 ADD DUP3 ADD MSTORE ADD PUSH2 0xC81 JUMP JUMPDEST DUP2 DUP2 GT ISZERO PUSH2 0xCAE JUMPI DUP3 PUSH1 0x20 DUP4 DUP8 ADD ADD MSTORE JUMPDEST POP PUSH1 0x1F ADD PUSH1 0x1F NOT AND SWAP3 SWAP1 SWAP3 ADD PUSH1 0x20 ADD SWAP3 SWAP2 POP POP JUMP JUMPDEST PUSH1 0x1 PUSH1 0x1 PUSH1 0xA0 SHL SUB SWAP2 SWAP1 SWAP2 AND DUP2 MSTORE PUSH1 0x20 ADD SWAP1 JUMP JUMPDEST PUSH1 0x1 PUSH1 0x1 PUSH1 0xA0 SHL SUB SWAP3 SWAP1 SWAP3 AND DUP3 MSTORE PUSH1 0x20 DUP3 ADD MSTORE PUSH1 0x40 ADD SWAP1 JUMP JUMPDEST PUSH1 0x1 PUSH1 0x1 PUSH1 0xA0 SHL SUB SWAP4 SWAP1 SWAP4 AND DUP4 MSTORE PUSH1 0x20 DUP4 ADD SWAP2 SWAP1 SWAP2 MSTORE PUSH1 0x40 DUP3 ADD MSTORE PUSH1 0x60 ADD SWAP1 JUMP JUMPDEST PUSH1 0x0 PUSH1 0x1 DUP1 PUSH1 0xA0 SHL SUB DUP16 AND DUP3 MSTORE DUP14 PUSH1 0x20 DUP4 ADD MSTORE DUP13 PUSH1 0x40 DUP4 ADD MSTORE DUP12 PUSH1 0x60 DUP4 ADD MSTORE DUP11 PUSH1 0x80 DUP4 ADD MSTORE DUP10 PUSH1 0xA0 DUP4 ADD MSTORE PUSH2 0x1A0 PUSH1 0xC0 DUP4 ADD MSTORE PUSH2 0xD52 PUSH2 0x1A0 DUP4 ADD DUP11 PUSH2 0xC78 JUMP JUMPDEST DUP3 DUP2 SUB PUSH1 0xE0 DUP5 ADD MSTORE PUSH2 0xD64 DUP2 DUP11 PUSH2 0xC78 JUMP JUMPDEST SWAP1 POP PUSH2 0xD74 PUSH2 0x100 DUP5 ADD DUP10 PUSH2 0xC64 JUMP JUMPDEST DUP7 PUSH2 0x120 DUP5 ADD MSTORE DUP3 DUP2 SUB PUSH2 0x140 DUP5 ADD MSTORE PUSH2 0xD8E DUP2 DUP8 PUSH2 0xC78 JUMP JUMPDEST PUSH2 0x160 DUP5 ADD SWAP6 SWAP1 SWAP6 MSTORE POP POP PUSH2 0x180 ADD MSTORE SWAP12 SWAP11 POP POP POP POP POP POP POP POP POP POP POP JUMP JUMPDEST PUSH1 0x20 DUP2 ADD PUSH1 0x2 DUP4 LT PUSH2 0xDC1 JUMPI PUSH2 0xDC1 PUSH2 0x1136 JUMP JUMPDEST SWAP2 SWAP1 MSTORE SWAP1 JUMP JUMPDEST PUSH1 0x20 DUP2 ADD PUSH2 0xDD5 DUP3 DUP5 PUSH2 0xC64 JUMP JUMPDEST SWAP3 SWAP2 POP POP JUMP JUMPDEST PUSH1 0x0 PUSH1 0x20 DUP3 MSTORE PUSH2 0xDEE PUSH1 0x20 DUP4 ADD DUP5 PUSH2 0xC78 JUMP JUMPDEST SWAP4 SWAP3 POP POP POP JUMP JUMPDEST PUSH1 0x0 PUSH1 0x40 DUP3 MSTORE PUSH2 0xE08 PUSH1 0x40 DUP4 ADD DUP6 PUSH2 0xC78 JUMP JUMPDEST SWAP1 POP DUP3 PUSH1 0x20 DUP4 ADD MSTORE SWAP4 SWAP3 POP POP POP JUMP JUMPDEST PUSH1 0x20 DUP1 DUP3 MSTORE PUSH1 0x2F SWAP1 DUP3 ADD MSTORE PUSH32 0x43616D706169676E2063616E6E6F7420626520656E6465642C20646561646C69 PUSH1 0x40 DUP3 ADD MSTORE PUSH15 0x3732903737BA103932B0B1B432B217 PUSH1 0x89 SHL PUSH1 0x60 DUP3 ADD MSTORE PUSH1 0x80 ADD SWAP1 JUMP JUMPDEST PUSH1 0x20 DUP1 DUP3 MSTORE PUSH1 0x25 SWAP1 DUP3 ADD MSTORE PUSH32 0x496E76616C69642073746174652E2043616E6E6F742061626F72742063616D70 PUSH1 0x40 DUP3 ADD MSTORE PUSH5 0x30B4B3B717 PUSH1 0xD9 SHL PUSH1 0x60 DUP3 ADD MSTORE PUSH1 0x80 ADD SWAP1 JUMP JUMPDEST PUSH1 0x20 DUP1 DUP3 MSTORE PUSH1 0x30 SWAP1 DUP3 ADD MSTORE PUSH32 0x596F7520646F6E7420686176652061636365737320746F20706572666F726D20 PUSH1 0x40 DUP3 ADD MSTORE PUSH16 0x74686973206F7065726174696F6E2021 PUSH1 0x80 SHL PUSH1 0x60 DUP3 ADD MSTORE PUSH1 0x80 ADD SWAP1 JUMP JUMPDEST PUSH1 0x20 DUP1 DUP3 MSTORE PUSH1 0x4F SWAP1 DUP3 ADD MSTORE PUSH32 0x476F616C206E6F7420726561636865642C20616D6F756E742063616E6E6F7420 PUSH1 0x40 DUP3 ADD MSTORE PUSH32 0x62652077697468647261776E2E20506C656173652061626F727420746F207265 PUSH1 0x60 DUP3 ADD MSTORE PUSH15 0x66756E6420746F206261636B657273 PUSH1 0x88 SHL PUSH1 0x80 DUP3 ADD MSTORE PUSH1 0xA0 ADD SWAP1 JUMP JUMPDEST PUSH1 0x20 DUP1 DUP3 MSTORE PUSH1 0xD SWAP1 DUP3 ADD MSTORE PUSH13 0x496E76616C6964207374617465 PUSH1 0x98 SHL PUSH1 0x40 DUP3 ADD MSTORE PUSH1 0x60 ADD SWAP1 JUMP JUMPDEST PUSH1 0x20 DUP1 DUP3 MSTORE DUP2 DUP2 ADD MSTORE PUSH32 0x436F6E747269627574696F6E20616D6F756E7420697320746F6F206C6F772021 PUSH1 0x40 DUP3 ADD MSTORE PUSH1 0x60 ADD SWAP1 JUMP JUMPDEST PUSH1 0x20 DUP1 DUP3 MSTORE PUSH1 0x48 SWAP1 DUP3 ADD MSTORE PUSH32 0x536F727279206261636B65722C20646561646C696E6520686173207061737365 PUSH1 0x40 DUP3 ADD MSTORE PUSH32 0x6421204E6F20636F6E747269627574696F6E732063616E206265206163636570 PUSH1 0x60 DUP3 ADD MSTORE PUSH8 0x3A32B2103737BB97 PUSH1 0xC1 SHL PUSH1 0x80 DUP3 ADD MSTORE PUSH1 0xA0 ADD SWAP1 JUMP JUMPDEST PUSH1 0x20 DUP1 DUP3 MSTORE PUSH1 0x2C SWAP1 DUP3 ADD MSTORE PUSH32 0x43616D706169676E2063616E6E6F742062652061626F727465642C2064656164 PUSH1 0x40 DUP3 ADD MSTORE PUSH12 0x3634B732903830B9B9B2B217 PUSH1 0xA1 SHL PUSH1 0x60 DUP3 ADD MSTORE PUSH1 0x80 ADD SWAP1 JUMP JUMPDEST SWAP1 DUP2 MSTORE PUSH1 0x20 ADD SWAP1 JUMP JUMPDEST SWAP2 DUP3 MSTORE PUSH1 0x20 DUP3 ADD MSTORE PUSH1 0x40 ADD SWAP1 JUMP JUMPDEST PUSH1 0x0 DUP3 NOT DUP3 GT ISZERO PUSH2 0x10B0 JUMPI PUSH2 0x10B0 PUSH2 0x1120 JUMP JUMPDEST POP ADD SWAP1 JUMP JUMPDEST PUSH1 0x2 DUP2 DIV PUSH1 0x1 DUP3 AND DUP1 PUSH2 0x10C9 JUMPI PUSH1 0x7F DUP3 AND SWAP2 POP JUMPDEST PUSH1 0x20 DUP3 LT DUP2 EQ ISZERO PUSH2 0x10EA JUMPI PUSH4 0x4E487B71 PUSH1 0xE0 SHL PUSH1 0x0 MSTORE PUSH1 0x22 PUSH1 0x4 MSTORE PUSH1 0x24 PUSH1 0x0 REVERT JUMPDEST POP SWAP2 SWAP1 POP JUMP JUMPDEST PUSH1 0x0 PUSH1 0x1 PUSH1 0x1 PUSH1 0xFF SHL SUB DUP3 EQ ISZERO PUSH2 0x1109 JUMPI PUSH2 0x1109 PUSH2 0x1120 JUMP JUMPDEST POP PUSH1 0x1 ADD SWAP1 JUMP JUMPDEST PUSH1 0x0 PUSH1 0x0 NOT DUP3 EQ ISZERO PUSH2 0x1109 JUMPI PUSH2 0x1109 JUMPDEST PUSH4 0x4E487B71 PUSH1 0xE0 SHL PUSH1 0x0 MSTORE PUSH1 0x11 PUSH1 0x4 MSTORE PUSH1 0x24 PUSH1 0x0 REVERT JUMPDEST PUSH4 0x4E487B71 PUSH1 0xE0 SHL PUSH1 0x0 MSTORE PUSH1 0x21 PUSH1 0x4 MSTORE PUSH1 0x24 PUSH1 0x0 REVERT INVALID LOG2 PUSH5 0x6970667358 0x22 SLT KECCAK256 LOG3 DUP2 0x29 PUSH12 0x14D0EF2E06E12D5886BCEE0 0xD3 GASPRICE GT EXTCODEHASH PUSH32 0x40CAA1D262D84FE15D144564736F6C63430008000033A2646970667358221220 0xE9 0xF DUP7 SGT 0xD4 0xE1 JUMPDEST BALANCE 0xBC PUSH14 0xF7ED942684E597AD8F806828722A 0xB5 0x2C 0x48 0xA7 SWAP6 EQ PUSH23 0xE964736F6C634300080000330000000000000000000000 "},"gasEstimates":{"creation":{"codeDepositCost":"1599000","executionCost":"1673","totalCost":"1600673"},"external":{"createCampaign(string,string,uint256,uint256,uint256,string,uint256)":"infinite","getDeployedCampaigns()":"infinite","returnDeployedCampaigns()":"infinite"}},"methodIdentifiers":{"createCampaign(string,string,uint256,uint256,uint256,string,uint256)":"0f415b61","getDeployedCampaigns()":"4acb9d4f","returnDeployedCampaigns()":"e327e214"}},"storageLayout":{"storage":[{"astId":729,"contract":"contracts/CrowdHelp.sol:CrowdHelp","label":"deployedCampaigns","offset":0,"slot":"0","type":"t_array(t_contract(Campaign)571)dyn_storage"}],"types":{"t_array(t_contract(Campaign)571)dyn_storage":{"base":"t_contract(Campaign)571","encoding":"dynamic_array","label":"contract Campaign[]","numberOfBytes":"32"},"t_contract(Campaign)571":{"encoding":"inplace","label":"contract Campaign","numberOfBytes":"20"}}},"userdoc":{"kind":"user","methods":{},"version":1}}}}